:060000000C946A000C9450
:1000060000000C9400000C9400000C9400000C946A
:1000160000000C9400000C9400000C9400000C945A
:1000260000000C9400000C9497000C9400000C94B3
:10003600C9000C9400000C9400000C9400000C9471
:1000460000000C9400000C9400000C940000102793
:10005600E80364000A00010000100001100001001E
:100066000000000000000000243D3D3D3D3D3D3DBB
:100076003D3D3D3D3D3D3D3D3D3D3D2400247C4BCC
:10008600414D594142202D2050524F4A4543547C00
:100096002400247C54656D706572747572652D52EA
:1000A60046436F6E7C240074656D7065727475725C
:1000B6006520206973203A0080C0010002006600B6
:1000C60006000400680002008501BE000000F894E6
:1000D600EE27ECBBF1E0FBBFEBBFE5BF8DE0A2E096
:1000E600BB27ED938A95E9F780E094E0A0E6ED93CF
:1000F6000197E9F7E0ECF0E085919591009761F0C2
:10010600A591B59105901590BF01F00105900D924E
:100116000197E1F7FB01F0CFEFE5EDBFE4E0EEBFBD
:10012600C0E6D1E00C941101EA93FA93EFB7EA9393
:100136001A930A931BB10CB1E12FEC7189F4E52DEA
:100146005394F0E0EB58FE4F0083E8E0E51509F420
:1001560055247394E8E0E71519F47724689420F899
:100166000991199125C01A937720F1F3E42D439450
:10017600F0E0EB58FE4F1081E8E0E41509F4442462
:10018600F8947A947894E12F19910895EA93FA9362
:10019600EFB7EA93882061F08A94E92D9394F0E012
:1001A600E358FE4FE081ECB9E8E0E91509F499243B
:1001B600E991EFBFF991E9911895E0E0EABBEBBB55
:1001C600E7BBE8BBE4BBE5BBE1BBE2BBE3BFE2BF29
:1001D600ECBFEFBDEEBDEDBDECBDE7BDE6BDEBBDD5
:1001E600EABDE9BDE8BDE2BDE5BDE4BDE3BDE9BFED
:1001F600E5BFE4BFEBB9E8EDEAB9E6E8E0BDE0E06B
:10020600E0BDE3E3E9B9E0E8E8B9E0E0E0BFE6B97C
:10021600EDB9E6BFA4E1D5D078940895CEDF8ED0AF
:10022600AEE6B0E0BBD0A3E8B0E0B8D0A8E9B0E055
:10023600B5D0AEE6B0E0B2D0A8EBBBE00E9421029A
:100246002697E0E0EC83ED83EC83ED83AC81BD8102
:1002560014976CF4EC81FD81DE01AE0FBF1FE0E068
:10026600EC93EC81FD813196EC83FD83EFCFE0E0EA
:10027600EC83ED83AC81BD8114978CF4EC81FD8118
:10028600DE01EA0FFB1FFF93EF936DDFAF91BF9186
:10029600EC93EC81FD813196EC83FD83EBCF4ED060
:1002A600E0E0EA93A0E03DD0ADEAB0E077D0E0E050
:1002B600EA93A2E036D0DE0162D02696C1CFFFCF08
:1002C600AA93E881E07111F0AB9A01C0AB98E8817E
:1002D600E07211F0AA9A01C0AA98E881E07411F0C0
:1002E600A99A01C0A998E881E07811F0A89A01C0FE
:1002F600A8988DE08A95F1F7AC9A8DE08A95F1F78A
:10030600AC988DE08A95F1F789C0AA93A881D8DFC9
:10031600E881E295E883A881D3DF85E88A95F1F73D
:100326007DC0AA93E881F0E0EB57FE4FE081A981FA
:10033600AE0FEBDFB980A88022960895A2E00E9456
:100346001302ACE0E2DFA1E00E941302E0E0AE2E71
:10035600BE2E0895AA93A881AA3011F0BD1448F0C4
:10036600E0E0EA93A394AA2DDCDFA881AA3009F481
:1003760055C0B394AD9AA881C8DFAD984FC0BA9363
:10038600AA931A93A981BA81ED91A983BA831E2FE4
:10039600E03019F0A12FDEDFF5CF10C0BA93AA9393
:1003A6001A93E981FA813196E983FA833197E491C8
:1003B6001E2FE03019F0A12FCDDFF3CF1881239641
:1003C6000895AA93A39AA29AA19AA09AA49AA59AE2
:1003D600B99AAC98AD98C198D880E881E058E09376
:1003E6008701E881E054E0938801A4E1B0E00E942F
:1003F60021020E9419020E9419020E941902A0E21B
:100406005FDF88EC90E00197F1F7A8E27EDFA4E0D9
:100416007CDFA5E87ADFA6E078DF90DF21960895F5
:100426000E948801A3E0B0E00C942102A0E30E94A0
:10043600630188EC90E00197F1F70895109639F082
:1004460080ED97E00197F1F7A8951197C9F7089500
:00000001FF
