:060000000C9447000C9473
:1000060000000C9400000C9400000C9400000C946A
:1000160000000C9400000C9400000C9400000C945A
:1000260000000C9400000C9474000C9400000C94D6
:1000360093000C9400000C9400000C9400000C94A7
:1000460000000C9400000C9400000C940000102793
:10005600E80364000A00010000100001100001001E
:10006600000000000000000001002D4E414E004936
:100076004E4600000100020066000600040068000B
:10008600010070016E000000F894EE27ECBBF1E071
:10009600FBBFEBBFE5BF8DE0A2E0BB27ED938A95E2
:1000A600E9F780E094E0A0E6ED930197E9F7EAE747
:1000B600F0E085919591009761F0A591B591059035
:1000C6001590BF01F00105900D920197E1F7FB0134
:1000D600F0CFEFE5EDBFE4E0EEBFC0E6D1E00C9473
:1000E600D200EA93FA93EFB7EA931A930A931BB1F5
:1000F6000CB1E12FEC7189F4E52D5394F0E0E05A50
:10010600FE4F0083E8E0E51509F455247394E8E012
:10011600E71519F47724689420F80991199112C00B
:10012600EA93FA93EFB7EA93882061F08A94E92D6F
:100136009394F0E0E859FE4FE081ECB9E8E0E91568
:1001460009F49924E991EFBFF991E9911895AA93D9
:10015600E8E0E815E9F3F894882011F45D990DC0FC
:10016600E62D6394F0E0E859FE4FA881A083E8E00D
:10017600E61509F46624839402C0E881ECB9789404
:100186000CC0AA93E881E7B98BE18A95F1F7369A14
:10019600349BFECF349AE4B1F5B121960895E0E0A0
:1001A600EABBEBBBE7BBE8BBE4BBE5BBE1BBE2BB41
:1001B600EBB9E8EDEAB9E6E8E0BDE0E0E0BDE3E38F
:1001C600E9B9E0E0E7B9E3EAE6B9E0E0E0BF789450
:1001D6002A97E0E0E887E987A0E0D3DFEE83FF8394
:1001E600AE81BF81E3E0F0E00E948801EC83FD83ED
:1001F600E0E0E887E987A885B985149754F40E945A
:100206006101E0E0EC93E885F9853196E887F987A6
:10021600F2CFA4EFB1E00E946701EC81FD81FA9371
:10022600EA93DE0112960E943301E3E4EA83E0E0FA
:10023600EB8380E991E00197F1F7E887E987A885E4
:10024600B985149754F40E946101AC9180DFE8856A
:10025600F9853196E887F987F2CF2A96B9CFFFCF8D
:10026600BA93AA93A991B991E991F99130962AF492
:10027600E095F09531966DE26D93E89480E197E212
:100286000DD088EE93E00AD084E6992707D08AE05D
:1002960005D06E2F10D066276C9308956627E81751
:1002A600F90720F06395E81BF90BC9F7662311F4EB
:1002B60016F008956894605D6D930895E885F98554
:1002C600DE01AE0FBF1F0895109639F080ED97E05E
:1002D6000197F1F7A8951197C9F70895F195E1955A
:1002E600F04008950024112490E1AA0FBB1F001CC2
:1002F600111C0E1A1F0A18F40E0E1F1E01C0A16053
:100306009A9599F7FD01D001089504D0EBDF0EF41C
:10031600E5DF0895E894F7FF02C0E0DF6894B7FFD1
:1003260006C0A095B095119600F8039400FA0895BA
:00000001FF
