:100000000C9462000C948A000C948A000C948A0070
:100010000C948A000C948A000C948A000C948A0038
:100020000C948A000C948A000C948A000C948A0028
:100030000C948A000C9469030C948A000C948A0036
:100040000C9423040C948A000C948A000C948A006B
:100050000C948A000C948A000C948A000C948A00F8
:100060000C948A000C948A00000000080002010031
:100070000003040700000000000000000102040863
:100080001020408001020408102001020408102002
:10009000040404040404040402020202020203032E
:1000A00003030303000000002300260029000000D2
:1000B0000000250028002B0000000000240027007D
:1000C0002A00A50111241FBECFEFD8E0DEBFCDBFAF
:1000D00011E0A0E0B1E0E0E4FDE002C005900D9287
:1000E000A036B107D9F721E0A0E6B1E001C01D922A
:1000F000A139B207E1F710E0C4ECD0E004C02297C8
:10010000FE010E949A06C23CD107C9F70E947505FC
:100110000C949E060C940000809160019091610106
:100120000197F9F480916401909165010196909393
:1001300065018093640141E06EE08AE691E00E94EF
:10014000680260916401709165014AE050E08AE6BE
:1001500091E00E946E0661E171E08AE691E00C9404
:10016000C205089520E044E064E18AE691E00E943F
:10017000820260E0809102010E94DC0462E08091D2
:1001800000010E94DC0440E055E36CE070E082E88E
:1001900091E00E94F8032FEF3FEFA9016CE870E0B7
:1001A00082E891E00E9408048AE691E00E946102E0
:1001B00040E060E08AE691E00E94680264E071E05D
:1001C0008AE691E00E94C20541E060E08AE691E0A3
:1001D0000E94680263E171E08AE691E00E94C20534
:1001E00042E060E08AE691E00E94680262E271E02B
:1001F0008AE691E00C94C205809100010E944B05B3
:10020000892B91F443E060E08AE691E00E94680265
:1002100064E371E08AE691E00E94C20581E090E02B
:1002200090936101809360018091600190916101E0
:10023000019709F089C0809102010E944B0581302D
:10024000910539F42091660130916701232B09F45F
:1002500051C0809102010E944B05892B39F4809195
:10026000660190916701019709F469C0809164016A
:10027000909165010A9709F067C02091680130915B
:10028000690146E0429FC001439F900D1124909365
:10029000630180936201109261011092600142E05B
:1002A0006EE08AE691E00E946802609162017091BE
:1002B00063014AE050E08AE691E00E946E0661E147
:1002C00071E08AE691E00E94C20543E060E08AE6C0
:1002D00091E00E94680263E471E08AE691E00E9486
:1002E000C205109269011092680110926501109286
:1002F0006401089520916801309169012F5F3F4F9B
:10030000309369012093680190936701809366019F
:1003100040E06EE08AE691E00E9468026091680128
:10032000709169014AE050E08AE691E00E946E0611
:1003300061E171E08AE691E00E94C2058ACF1092E5
:1003400067011092660192CF0895CF92EF920F93BA
:1003500088E0C82E99E0E92E0AE02BE04CE06DE041
:100360008AE691E00E943D030F91EF90CF900895AF
:10037000CF93DF93EC0160E08E810E94150581E050
:1003800090E00E946D0461E08E810E94150581E07D
:1003900090E00E946D0460E08E810E94150584E665
:1003A00090E0DF91CF910C946D04CF92DF92EF92A9
:1003B000FF920F931F93CF93DF937C01C0E0D0E0B7
:1003C000C62ED12C87010C0F1D1F61E0F80187811B
:1003D0000E94DC04B6010C2E02C0759567950A9444
:1003E000E2F76170F80187810E9415052196C430FB
:1003F000D10541F7C701DF91CF911F910F91FF9078
:10040000EF90DF90CF900C94B801CF92DF92EF92F3
:10041000FF920F931F93CF93DF937C01C0E0D0E056
:10042000C62ED12C87010C0F1D1F61E0F8018781BA
:100430000E94DC04B6010C2E02C0759567950A94E3
:10044000E2F76170F80187810E9415052196C83096
:10045000D10541F7C701DF91CF911F910F91FF9017
:10046000EF90DF90CF900C94B8011F93CF93DF9360
:10047000EC01162F642F8C810E9415058D818F3F12
:1004800019F060E00E9415058F85612F84FF06C07A
:10049000CE01DF91CF911F910C94050270E084E0B2
:1004A000759567958A95E1F7CE010E94D501612F78
:1004B000CE01DF91CF911F910C94D50140E00C94B7
:1004C000350261E00E945E0280ED97E00C946D04BD
:1004D000443008F043E0FC012389421710F04FEF4D
:1004E000420FFC01E40FF11D2489260F2068622FC2
:1004F0000C945E02FC016089262F2460208B6C60C6
:100500000C945E02CF93DF93EC01423018F08F859C
:1005100088608F874B8B1C8A80E48D8B6E8B70E09C
:10052000605C7F4F6F8B222329F0413019F48F8557
:1005300084608F8780E593EC0E946D0460E08C817D
:100540000E94150560E08E810E9415058D818F3F08
:1005500019F060E00E9415056F8564FD1DC063E021
:10056000CE010E94D50184E991E10E946D0463E00F
:10057000CE010E94D50184E991E10E946D0463E0FF
:10058000CE010E94D50186E990E00E946D0462E0F0
:10059000CE010E94D50116C06062CE010E945E02AB
:1005A00084E991E10E946D046F856062CE010E9432
:1005B0005E0286E990E00E946D046F856062CE0164
:1005C0000E945E026F856062CE010E945E0284E03E
:1005D000888BCE010E947A02CE010E94610282E0E5
:1005E000898B66E0CE01DF91CF910C945E026F9211
:1005F0007F928F92AF92CF92EF920F931F93CF93F0
:10060000DF93CDB7DEB73C01162F842F5D854E8575
:100610003F859889F301848325830683E782C0861A
:10062000A1868286538744873587968761E00E943A
:10063000DC04F30185818F3F19F061E00E94DC0446
:1006400061E0F30186810E94DC04112319F0F301BB
:10065000178603C080E1F301878720E041E060E175
:10066000C301DF91CF911F910F91EF90CF90AF9089
:100670008F907F906F900C9482028F92AF92CF9266
:10068000EF920F93DC0113961C921E921297EBE5EA
:10069000F1E0ED93FC931F921F921F921F928C2CFE
:1006A000AE2CC02EE22E042F2FEF462F61E00E94C9
:1006B000F7020F900F900F900F900F91EF90CF9047
:1006C000AF908F90089541E00E94350281E090E064
:1006D00008951F920F920FB60F9211242F933F93FC
:1006E0004F935F936F937F938F939F93AF93BF933A
:1006F000EF93FF93E0918601F09187010995FF91B7
:10070000EF91BF91AF919F918F917F916F915F9189
:100710004F913F912F910F900FBE0F901F90189502
:10072000FC01A3E0440F551F661F771FAA95D1F760
:100730004115510581E06807710514F481E00EC090
:1007400033E075956795579547953A95D1F74115DB
:10075000510581E0680771051CF482E0828331C095
:1007600023E075956795579547952A95D1F74115DB
:10077000510581E06807710514F483E0EFCF92E042
:1007800075956795579547959A95D1F741155105F8
:1007900081E06807710514F484E0E0CF82E075958C
:1007A0006795579547958A95D1F785E082834115DE
:1007B000510581E06807710524F04FEF5FEF60E0BD
:1007C00070E08FB78383F894518340835093870000
:1007D0004093860083818FBF80918100887F8093C2
:1007E0008100809181009281892B809381000895FE
:1007F0001092800020E1209381000C949003E1E8A6
:10080000F0E02081DC0112968C91282B2083089542
:100810000F931F93CF93DF93EC018B01BA01A901D2
:10082000141615061606170614F40E9490031D836D
:100830000C8381E080936F00CE01DF91CF911F91F7
:100840000F910C94FF031F920F920FB60F92112479
:100850002F933F938F939F93AF93BF938091890181
:1008600090918A01A0918B01B0918C013091880107
:1008700023E0230F2D3720F40196A11DB11D05C0E3
:1008800026E8230F0296A11DB11D209388018093B5
:10089000890190938A01A0938B01B0938C01809180
:1008A0008D0190918E01A0918F01B09190010196E0
:1008B000A11DB11D80938D0190938E01A0938F0196
:1008C000B0939001BF91AF919F918F913F912F91E4
:1008D0000F900FBE0F901F9018958230910538F041
:1008E000880F991F880F991F05970197F1F70895B1
:1008F000789484B5826084BD84B5816084BD85B5FB
:10090000826085BD85B5816085BDEEE6F0E08081C1
:1009100081608083E1E8F0E01082808182608083E2
:10092000808181608083E0E8F0E080818160808365
:10093000E1EBF0E0808184608083E0EBF0E0808197
:1009400081608083EAE7F0E0808184608083808139
:1009500082608083808181608083808180688083E1
:100960001092C1000895833081F028F4813099F00D
:100970008230A1F008958730A9F08830B9F0843032
:10098000D1F4809180008F7D03C0809180008F77AB
:1009900080938000089584B58F7702C084B58F7DE1
:1009A00084BD08958091B0008F7703C08091B0001E
:1009B0008F7D8093B0000895CF93DF9390E0FC018A
:1009C000E458FF4F2491FC01E057FF4F84918823A6
:1009D00049F190E0880F991FFC01E854FF4FA59161
:1009E000B49182559F4FFC01C591D4919FB761117D
:1009F00008C0F8948C91209582238C93888182235F
:100A00000AC0623051F4F8948C91322F30958323D0
:100A10008C938881822B888304C0F8948C91822BDC
:100A20008C939FBFDF91CF9108950F931F93CF9326
:100A3000DF931F92CDB7DEB7282F30E0F901E859D8
:100A4000FF4F8491F901E458FF4F1491F901E057E9
:100A5000FF4F04910023C9F0882321F069830E948D
:100A6000B3046981E02FF0E0EE0FFF1FE255FF4F66
:100A7000A591B4919FB7F8948C91611103C0109522
:100A8000812301C0812B8C939FBF0F90DF91CF9169
:100A90001F910F910895CF93DF93282F30E0F90134
:100AA000E859FF4F8491F901E458FF4FD491F901BF
:100AB000E057FF4FC491CC2391F081110E94B30401
:100AC000EC2FF0E0EE0FFF1FEC55FF4FA591B49116
:100AD0002C912D2381E090E021F480E002C080E0A1
:100AE00090E0DF91CF91089508950E9478040E94CC
:100AF00074050E94B200C0E0D0E00E94FC00209784
:100B0000E1F30E940000F9CFCF92DF92EF92FF92C3
:100B10000F931F93CF93DF936C017A01EB01E60EE5
:100B2000F71E00E010E0CE15DF0561F06991D601F7
:100B3000ED91FC910190F081E02DC6010995080F1F
:100B4000191FF1CFC801DF91CF911F910F91FF9035
:100B5000EF90DF90CF9008956115710581F0DB0172
:100B60000D900020E9F7AD0141505109461B570B8C
:100B7000DC01ED91FC910280F381E02D099480E08D
:100B800090E008950C94AC05DC01ED91FC9101908E
:100B9000F081E02D09948F929F92AF92BF92CF92F5
:100BA000DF92EF92FF920F931F93CF93DF93CDB716
:100BB000DEB7A1970FB6F894DEBF0FBECDBF7C01A4
:100BC000C42EE52FCB01D22E19A221E02D1510F055
:100BD0002AE0D22E8E010F5D1F4F8D2C912CA12C5F
:100BE000B12C6C2D7E2FA50194010E9476068C2DD0
:100BF000D29E80191124015011098A3014F4805DAD
:100C000001C0895CF801808321153105410551053A
:100C100021F0C22EE32FCA01E4CFB801C7010E9420
:100C2000AC05A1960FB6F894DEBF0FBECDBFDF9125
:100C3000CF911F910F91FF90EF90DF90CF90BF90D9
:100C4000AF909F908F900895CF92DF92EF92FF9296
:100C50000F931F93CF93DF93EC016A017B01211562
:100C6000310579F4E881F9810190F081E02D642F5C
:100C7000DF91CF911F910F91FF90EF90DF90CF9078
:100C800009942A303105E9F477FF1AC06DE20E9419
:100C9000C4058C0144275527BA014C195D096E091A
:100CA0007F092AE0CE010E94CB05800F911FDF91C2
:100CB000CF911F910F91FF90EF90DF90CF9008950B
:100CC0002AE0B701A601CE01DF91CF911F910F91CC
:100CD000FF90EF90DF90CF900C94CB059A01AB0181
:100CE000662757FD6095762F0C942406A1E21A2EF4
:100CF000AA1BBB1BFD010DC0AA1FBB1FEE1FFF1FC0
:100D0000A217B307E407F50720F0A21BB30BE40B0F
:100D1000F50B661F771F881F991F1A9469F7609556
:100D20007095809590959B01AC01BD01CF01089510
:100D3000EE0FFF1F0590F491E02D0994F894FFCF7A
:100D40000200040043757272656E742048422020D0
:100D50003A200054696D6520696E20536563203A1E
:100D60002000484220706572204D696E20203A2094
:100D7000302E3000484220436F756E74696E6720D4
:100D80002E2E00507265737320427574746F6E203E
:100D9000616761696E2E0000000000630384050036
:00000001FF
