:080000000C945C000C9400005C
:100008000C9400000C9400000C9400000C94000068
:100018000C9400000C9400000C9400000C94000058
:100028000C9400000C9400000C9400000C94000048
:100038000C9400000C9400000C948B000C940000AD
:100048000C9400000C9400000C9400000C94000028
:100058000C9400000C9400000C9400000C94000018
:100068000C9400000C9400000C9400000C94000008
:100078000C9400000C9400000C9400000C940000F8
:100088000C940000039F250D9949411F0109FFFDAC
:10009800910000000000000000000A000A000A00A9
:1000A8000A00080004009A0007000005A2000000EA
:1000B800F894EE27ECBBF1E0F5BFE5BFE0936C00E8
:1000C8008DE0A2E0BB27ED938A95E9F780E090E107
:1000D800A0E0B1E0ED930197E9F7EAEAF0E0859155
:1000E8009591009761F0A591B59105901590BF0184
:1000F800F00105900D920197E1F7FB01F0CFEFEFCA
:10010800EDBFE0E1EEBFC0E0D5E00C94E800AA93B3
:10011800EA93FA93EFB7EA93F201E370F0703F01C4
:10012800F20131962F01F301309779F416D21DD2DE
:10013800E0910005F0910105E457FF4FE491EE7F4F
:100148001DD2E160E093650039C0E130A0E0FA0714
:1001580071F4E0916500EE7F16D207D2E0910205B6
:10016800F091030515D2E260E093650027C0E23004
:10017800A0E0FA0779F4F1D1EE7F05D2E77FE093AA
:100188006500E0910405F091050502D2E460E09372
:10019800650014C0E330A0E0FA0781F4DED1EB7FFC
:1001A800F2D1EE7FE0936500E0910605F091070536
:1001B800EFD1E860E093650044245524E991EFBF4E
:1001C800F991E991A9911895EFEFEABBEBBBE7BB71
:1001D800E0E0E8BBEFEFE4BBE5BBE0E0E1BBEFE06C
:1001E800E2BBE7E0E2B9E0EFE3B9EFEFE0936100EB
:1001F800E0E0E0936200EFE1E0936400E0E0E09388
:100208006500E0BFE3E0E3BFE0E0E2BFE1BFEFBDD0
:10021800EEBDEDBDECBDE7BDE6BDEBBDEABDE9BD9C
:10022800E8BDE0937900E0937800E5BDE4BDE3BD67
:10023800E0938B00E0938A00E0938900E0938800C4
:10024800E0938100E0938000E0938700E0938600CC
:10025800E0938500E0938400E0938300E0938200BC
:10026800E1E0E7BFE0E0E0937D00E0936A00EABFE9
:10027800E9BFEAB9E0939A00E0E8E8B9E0E0E0BD58
:10028800E6B9EDB9E09374007894EBE0F0E084D13E
:10029800E2E0F5E0ACE0B0E0A083B183E4E0F5E0B3
:1002A800A1E0B0E0A083B183E6E0F5E0ABE0B0E028
:1002B800A083B18376D179D178D148D1A8EEB3E0C3
:1002C8000E943303D89AD99ADA9ADB9ADC9ADD9A93
:1002D800DE9ADF9A6FD1DF010CD182991BC06FD1F2
:1002E800E0910805E03091F06ED1E9E0F0E0AE165B
:1002F800BF0650F464D1C09B02C0C09801C0C09A28
:10030800F50131965F01F1CFC09859D163D179D108
:10031800DF01EFD080991AC052D14CD17F9718F4E1
:1003280090D114D113C046D1E536A0E0FA0718F4ED
:1003380041D13A9707C03ED1E536A0E0FA0730F040
:1003480039D1F297A0E0B0E00E9463030C991BC07A
:1003580036D130D1E83BABE0FA0710F079D113C0C1
:1003680029D1E436A0E0FA0718F424D13A9607C058
:1003780021D1E436A0E0FA0730F01CD1F296A0E0D3
:10038800B0E00E9463030E9902C019D15AD10F99A7
:100398000CC015D1C19B02C0C19801C0C19AE0919F
:1003A8000805E095E09308055DC0879B03C007D169
:1003B80048D158C0869B1CC002D1FCD0E83BABE0BA
:1003C800FA0710F045D113C0F5D0E436A0E0FA07DB
:1003D80018F4F0D03A9607C0EDD0E436A0E0FA075A
:1003E80030F0E8D0F296A0E0B0E00E9463033AC093
:1003F800859B1CC0E4D0E0910805E03091F0E3D083
:10040800E9E0F0E0AE16BF0650F4D9D0C09B02C0B8
:10041800C09801C0C09AF50131965F01F1CFC0982C
:10042800CED0D8D0EED0DF0164D01CC0849B1AC0D7
:10043800C6D0C0D07F9718F404D188D013C0BAD0E2
:10044800E536A0E0FA0718F4B5D03A9707C0B2D05D
:10045800E536A0E0FA0730F0ADD0F297A0E0B0E0C2
:100468000E9463039ED0A6D0E032A3E0FA0721F4ED
:10047800D89AA89AA99A3BC0EE3EA2E0FA0711F4CE
:10048800D99A35C0EC3BA2E0FA0719F4DA9AAA9A8D
:100498002EC0EA38A2E0FA0711F4AB9A28C0E83572
:1004A800A2E0FA0711F4DB9A22C0E632A2E0FA07CA
:1004B80019F4AC9ADC9A1BC0E43FA1E0FA0711F4E6
:1004C800DD9A15C0E23CA1E0FA0719F4DE9AAD9A6C
:1004D8000EC0E039A1E0FA0719F4DF9AAE9A07C016
:1004E800EE35A1E0FA0711F4AF9A01C05AD0F2CE66
:1004F800FFCFBA93AA93E3E0F0E06F018880998078
:100508000024C014D0042CF0E3E0F0E0EC15FD0565
:100518000CF41AC0F601A0E0B5E0EE0FFF1FEA0FD9
:10052800FB1FBF01D401EAE0F0E00E945003DB01A9
:10053800ED93FC93D401EAE0F0E00E943D034F0103
:10054800F60131976F01DCCF22960895C09AA8EC86
:10055800B0E00E943303C0980895E0916500ED7FF4
:10056800E0936500E09165000895EB7FE0936500F6
:10057800E0916500E77FE09365000895E0936200ED
:10058800E09165000895E0936500E09165000895A5
:10059800E457FF4FE491F2CFE0930005F093010593
:1005A8000895E0E0EBBBE5BB0895D0DFA8ECB0E030
:1005B8000C943303A0E0B0E00E9453030895A4EF25
:1005C800B1E00C943303A8EBB2E293DFC09AAA24FB
:1005D800BB240895E0916500E061E0936500EBE0DD
:1005E800F0E0E0930605F0930705E0930405F09327
:1005F8000505E0930205F0930305CEDFC09AC29A81
:10060800D9CFE853FF4FDF010E943303C298C09847
:10061800E0916500EF7EE0936500ECE0F0E0E093A8
:100628000605F0930705E0930405F0930505E093AC
:100638000205F0930305B0DFA8E9BAE30E9433038B
:10064800B9CFA0E0B0E0EEE1F0E00E9463030895C6
:10065800A0E0B0E0E8EBFBE00E94630377CF1096E0
:1006680039F080ED97E00197F1F7A8951197C9F750
:1006780008950024112490E1AA0FBB1F001C111C2F
:100688000E1A1F0A18F40E0E1F1E01C0A1609A95BB
:1006980099F7FD01D0010895ECDFFD010895119649
:1006A80002D0FE2F1197E199FECFFF93FFB7F89480
:1006B800AEBBBFBBE09AEDB3FFBFFF91089507D073
:1006C8001196EF93EF2F03D0EF9111970895E19BC7
:1006D80002C0A895FCCF9FB7F894AEBBBFBBE09A09
:1006E8008DB3E81719F0EDBBE29AE19A9FBF089520
:00000001FF
