:0400000040C0FECF2F
:10000400FDCFFCCFFBCFFACFF9CFF8CFB3C066C09A
:10001400F5CFF4CFF3CFF2CFF1CFF0CFEFCFEECFD8
:10002400EDCF1027E80364000A000100001000016E
:10003400100001000000057D46543C94845D0414C6
:10004400FFFEDFBFEFF7FD7FDF9F8F878505256507
:10005400757D7FFF860000000000000100000000A5
:10006400253464000100020038000C0060013A00ED
:100074000D006C014C000A0004005A000000F894C2
:10008400EE27ECBBF1E0FBBFEBBFE5BFF8E1F1BD50
:10009400E1BD8DE0A2E0BB27ED938A95E9F780E00E
:1000A40094E0A0E6ED930197E9F7E8E6F0E08591A6
:1000B4009591009761F0A591B59105901590BF01B8
:1000C400F00105900D920197E1F7FB01F0CFEFE508
:1000D400EDBFE4E0EEBFC0E6D1E07FC2AA93EA93AD
:1000E400FA93EFB7EA93E92D66D4E130A0E0FA077A
:1000F40041F4C39AC098C198C298E52D5ED4E2E059
:1001040032C0E230A0E0FA0761F4E42D56D4C3987B
:10011400C09AC198C298E1E0E81509F49298E3E026
:1001240022C0E330A0E0FA0741F4E72D46D4C39897
:10013400C098C19AC298E4E016C0E430A0E0FA077F
:1001440099F420FC05C0E62D36D4E05AFE4F04C0D5
:10015400EA2D31D4E459FE4FE081E2BBC398C09844
:10016400C198C29AE1E09E2EE991EFBFF991E9911D
:10017400A99118951895AA93E881E7B98BE18A9516
:10018400F1F7369A349BFECF349AE4B1F5B187C0C7
:10019400E0E0E8BBEFE3E7BBE0E0E5BBE3E2E4BBC0
:1001A400E0E0E2BBEFEFE1BBE3E0E3BFE0E0E2BFAE
:1001B400EFBDE5E0EEBDE0E0EDBDECBDE7BDE6BDC5
:1001C400EBBDEABDE9BDE8BDE2BDE5BDE4BDE3BD0F
:1001D400E5BFE5E0E9BFE0E0EAB9E0E8E8B9E0E07E
:1001E400E0BFE7B9E3E8E6B9E0E0EDB9E6BF78944B
:1001F4000895AA93E881DFD3E033A0E0FA0719F465
:10020400E0E0F0E04CC0E133A0E0FA0719F4E1E0EB
:10021400F0E045C0E233A0E0FA0719F4E2E0F0E0D0
:100224003EC0E333A0E0FA0719F4E3E0F0E037C09E
:10023400E433A0E0FA0719F4E4E0F0E030C0E53379
:10024400A0E0FA0719F4E5E0F0E029C0E633A0E005
:10025400FA0719F4E6E0F0E022C0E733A0E0FA0779
:1002640019F4E7E0F0E01BC0E833A0E0FA0719F462
:10027400E8E0F0E014C0E933A0E0FA0719F4E9E09B
:10028400F0E00DC0E032A0E0FA0719F4EAE0F0E093
:1002940006C0ED32A0E0FA0711F4EBE0F0E021969D
:1002A400089591D32497FE0191D3E4E6F0E08ED330
:1002B400E885F98558D4BCD484E03CD32896AB8136
:1002C40098DF5E2EAA8195DF4E2EA98192DF7E2EC5
:1002D400A8818FDF6E2E26960895AA931A931A8109
:1002E40078D360F1E98167D3E130A0E0FA0739F40B
:1002F400193011F410E001C01F5F512E1BC0E23011
:10030400A0E0FA0739F4193011F410E001C01F5FBE
:10031400412E10C0E330A0E0FA0739F4113011F493
:1003240010E001C01F5F712E05C0E430A0E0FA07A1
:1003340009F4612EACE2B1E0FCD3D2CFE12F1881F5
:1003440023960895B1D44BD330E0E1E08E2E4AD306
:100354004CD34ED355244FD374D450D3EAE05E1615
:1003640010F4352D01C030E03AD34AD344F4EAE026
:100374005E2E4AD308F04ED352D360F4F6CF2FD377
:100384003FD33CF4532E40D308F044D348D310F465
:10039400F7CFE4CF532E23D342D338F046D3053FCF
:1003A400E1E01E070CF04FC0F7CF45D3EAE04E164C
:1003B40010F4342D01C030E012D322D33CF418D30E
:1003C40023D308F03ED32BD360F4F7CF08D318D34C
:1003D4003CF4432E19D308F034D321D310F4F7CFCF
:1003E400E5CF432EFCD21BD330F01FD30D32E1E016
:1003F4001E074CF5F8CF1FD3EAE07E1610F4372D14
:1004040001C030E0ECD2FCD23CF4EFD2FDD208F0D3
:100414001DD305D360F4F7CFE2D2F2D23CF4732EAD
:10042400F3D208F013D3FBD210F4F7CFE5CF732E39
:10043400D6D2F5D230F0F9D20D32E1E01E071CF429
:10044400F8CFF9D28BCFE52DD6D2B5D212D4EAE0CB
:100454004E1630F4D0D2F5D3BF01A42DEAE0FBD27E
:10046400EAE07E1628F4FED2BF01A72DE4E6F3D21B
:10047400A99AF8D2C3D2F9D2A998F7D2A99AF5D2F7
:10048400A998F3D2A99AA8EEB3E053D3A998E1E0CE
:10049400E0937901689421F80ED424960895229764
:1004A400E0E0E883E983FED310E020E030E040E0C0
:1004B40050E0E89421F8CC24DD24E1E08E2EBB202A
:1004C400E1F4A2E058DEE139A1E0FA07B0F0193016
:1004D40071F4F60131966F01CBD2EF5FFF4F6F4F8E
:1004E4007F4FBFD331976040704010E001C01F5F61
:1004F400D601D7DEE1E08E2EBE2EB4D2CE16DF06B4
:1005040014F0BAD209F011C0A99AA89A4F5F5F4FAC
:100514004532E7E75E0740F040E050E0E0E0E0937A
:100524007901EBE0AE2EA9981EC09CD23697EC154B
:10053400FD0514F4A1D209F016C0AD9A93D2EC19BA
:10054400FD09A8ECB0E01CD3E057FE4F2E173F077F
:1005540018F42F5F3F4F07C0A99B02C0A99801C0A0
:10056400A99A20E030E0A2E006DEE039A1E0FA0733
:1005740008F4BB242ED218F0A4E682D22AC04FD2AB
:1005840038F080D282D2EBE083D2DCDED60189DE81
:1005940021FE1EC0689420F881D2319682D2A83EF2
:1005A400E3E0BE07A9F468D249F4A394E0E0EE8343
:1005B400EF83ECE0EA1509F4AA240AC0E0E0EE8334
:1005C400EF83EBE0EA1511F4ECE001C0EBE0AE2EB2
:1005D40076CFAD986ED328960895EAE05E2E08D2C1
:1005E40004D200D2D5DD3ED2EF3FAFEFFA0721F4BB
:1005F40002D2E0E0F0E03DD33BD2EF3FAFEFFA07A9
:10060400AFEF6A07AFEF7A0709F450D2E89421F804
:100614008824E0E0E0937901A898A998E89420F868
:10062400EAE05E2EE5D1E1D1DDD1A99AA8EC28D289
:10063400A9981ED243D2E730A7E2FA07A0E06A07DE
:10064400A0E07A074CF014D239D2D8D1A99AA8E8FC
:10065400B3E16FD22BD2A9980BD230D2CFD136D2FC
:1006640011D2C6D1C2D1BED131D202D227D2C6D183
:100674002DD208D20AD2B9D1B5D128D2F9D11ED2FD
:10068400BDD124D2FFD101D2EBE07E2EABD11ED25C
:10069400EFD114D2B3D11AD2F5D1F7D1EBE0F8D11E
:1006A4005524A6D1A2D19ED1FADEB2CFFFCF8BD1F1
:1006B400FDD20FD21296B4D23097F1F00AD20CD2F6
:1006C4008F01309761F00230E0E01E07A0F0F801DE
:1006D40031978F01AA81BB811496ED93FC93F9D1D4
:1006E4001296FDD13197AC81A083F3D199D2FF2327
:1006F40012F0EFD1F4D105C0ECD1EFEFFFEFED93A1
:10070400FC93DBD2259608955ED12697CBD210E0D8
:10071400AC85BD85E0E0F0E0ED93FC93EA89FB89CC
:100724003196EA8BFB8B3197E4912E2FE03009F45C
:10073400FBC0E12FE03031F4253211F411E001C0A7
:10074400D4D1F1C0E130A1F4253211F4CED1EAC004
:1007540012E040E000E02D3211F401E0E4C02B325D
:1007640011F44BE2E0C0203211F440E2DCC002C0DC
:10077400E23039F450E013E0203311F40068D3C0C0
:1007840003C0E33009F0CFC0203310F02A3308F05F
:1007940007C0AAE05A9F502DE22FE0535E0FC3C05A
:1007A400E22FE33639F4A8D1AAD1A6D1A481AA9321
:1007B400AAD1B8C0E33731F4ACD1ADD172D1E4D011
:1007C4001E2F08C0E03751F4A4D1A5D16AD1E7D0D7
:1007D4001E2F086002600F7730E02EC0E43611F05F
:1007E400E93611F4046002C0E53729F4E6E2F0E0EA
:1007F40095D115E00BC0E83511F4086003C0E83763
:1008040009F090C0E0E3F0E089D114E002FF11C0E8
:1008140080D181D186D1AB85AA232AF4EA85FB85D0
:1008240096D17FD14DE2403011F01F5F01C00B7FA4
:1008340003C06FD170D175D100FD10C0151770F4CD
:1008440007FF08C002FF04C00B7F242F115001C012
:1008540020E301C020E249D15150F0CF312F01FFF4
:1008640014C0303089F003FF04C018D1259156D14B
:1008740005C0AE81BF812D91AE83BF8336D1503088
:1008840009F051503150EDCF44C020E307D1CCD111
:10089400E887F98703D1329641D1E885F985AA859D
:1008A400BB85AE17BF0748F02F5FA885B985EA85D9
:1008B400FB85EA1BFB0B35D1F0CF2A3328F003FF6D
:1008C40002C0295F01C0295D04FD19C0213320F451
:1008D400A885B985119709F409C0531710F000FFD2
:1008E40001C011C020E207FF0AC020E3006102FF3B
:1008F40006C00B7F4A9307D1503009F05150F5D010
:10090400503009F051503150A885B985129708F03C
:10091400BCCF00FF07C0503029F05150E0E2EA9309
:10092400F2D0F9CF10E0FACEAC85BD8579D1C1D132
:1009340064960895FF92F82E2697B6D1F5D0309795
:1009440019F4EFEFFFEF1CC0DE011696FCD08D0109
:10095400EBD0E4D0E0E0E887E987DE011A96F3D033
:100964005FD134D01A930A93E9E5F3E02FD0DE0186
:100974001A96CADE9F01AE81BF81E0E0EC93F901D3
:100984009AD12A96FF9008951ED0A991B991EE2785
:10099400FF276D91662311F03196FBCF089513D094
:1009A400AA27BB27E991F9910590002011F011962F
:1009B400FBCFFD010895F0E00895FDDFE05AFE4FFE
:1009C400E081E2BB0895BA93AA930895FA93EA9357
:1009D4000895A4E0D0DBE139A1E0FA07089500E02E
:1009E40010E00895EAE06E2E0895EAE07E2E089560
:1009F400EAE04E2E0895A4E0B0E00895DF0151CC62
:100A0400043FE1E01E070895A1E0B0E092D00F5F3B
:100A14001F4FDFCF3A93A1E060DC3E2F0895A3E09F
:100A2400AADBE739A0E0FA070895A1E0B0E081D09D
:100A34000F5F1F4F0895A99AA0E5B0E07AD0A99856
:100A440008953A93A2E049DC3E2F08953A93A3E037
:100A540044DC3E2F0895EA9FF001E60FF71FCBDF39
:100A640008D10895C8DFEDD00895A6E9B0E061C0CB
:100A7400A0E0B0E0E2D00895A0917901A1300895FA
:100A8400B0E057C0EBE05E2E0895EBE04E2E0895E3
:100A94007E2EEBE06E2EA4EFB1E04BC0EE81FF8121
:100AA4000895EE83FF83AE81BF810895A0E0B0E096
:100AB400E0E0F0E060E070E0D4D00895DF01CB0125
:100AC400E4E6F0E060E070E085D00895A4EFB1E0E2
:100AD40030C0AA81BB8108951496A2D00895ED91E7
:100AE400FD913196FE93EE9308952A93AD85BE85CC
:100AF400EF85F88909950895E889F9890895349767
:100B0400E88BF98B0895AD85BE85EF85F889099545
:100B14000895F2DFF4CFA889B989DECFEE83FF838D
:100B24000895EA87FB870895DE011C960CD078D0DF
:100B34000895109639F080ED97E00197F1F7A895A4
:100B44001197C9F708950024AF0DB01D0895F195CC
:100B5400E195F0400895F09560957095E195FF4F0B
:100B64006F4F7F4F08956F2F660F660B762F089592
:100B7400FA9FF02DEB9FF00DEA9FE02DF10D089503
:100B84002ED0F6DF0EF4E3DF08953F934F935F9387
:100B9400002411244427552730E2AA0FBB1F881FC5
:100BA400991F001C111C441F551F0E1A1F0A460BC7
:100BB400570B28F40E0E1F1E461F571F01C0A160BD
:100BC4003A9559F7FD01BC01D001CA015F914F91DB
:100BD4003F91089512D0D9DF0EF4BDDF0895E89453
:100BE400F7FF02C0B4DF6894B7FF06C0A095B095C4
:100BF400119600F8039400FA0895E89477FF02C070
:100C0400AADF689497FF0BC00024A095B095809547
:100C140090951196801D901D00F8039400FA089594
:100C2400ED91FC91119708950590F491E02D0895AC
:100C34007A936A93FA93EA930895129602D0BF01C5
:100C44001297119602D0FE2F1197E199FECFFF93D0
:100C5400FFB7F894AEBBBFBBE09AEDB3FFBFFF9103
:100C6400089507D012960F01FB0103D0F0011297EB
:100C7400089507D01196EF93EF2F03D0EF911197BA
:100C84000895E19B02C0A895FCCF9FB7F894AEBB32
:100C9400BFBBE09A8DB3E81719F0EDBBE29AE19A75
:100CA4009FBF08955A934A933A932A931A930A93A7
:100CB40008955D814C813B812A81198108810895C1
:00000001FF
