:0A0000000C945C000C9400000C94BA
:10000A0000000C9400000C9400000C9400000C9466
:10001A0000000C9400000C9400000C9400000C9456
:10002A0000000C9400000C9400000C9400000C9446
:10003A0000000C9400000C948B000C9400000C94AB
:10004A0000000C9400000C9400000C9400000C9426
:10005A0000000C9400000C9400000C9400000C9416
:10006A0000000C9400000C9400000C9400000C9406
:10007A0000000C9400000C9400000C9400000C94F6
:10008A000000039F250D9949411F0109FFFD9100B9
:10009A0000000000000000000A000A000A000A002E
:1000AA00080004009A0007000005A2000000F89466
:1000BA00EE27ECBBF1E0F5BFE5BFE0936C008DE005
:1000CA00A2E0BB27ED938A95E9F780E090E1A0E0F2
:1000DA00B1E0ED930197E9F7EAEAF0E085919591AD
:1000EA00009761F0A591B59105901590BF01F001B7
:1000FA0005900D920197E1F7FB01F0CFEFEFEDBF0D
:10010A00E0E1EEBFC0E0D5E00C94E800AA93EA93E0
:10011A00FA93EFB7EA93F201E370F0703F01F2014C
:10012A0031962F01F301309779F419D220D2E09158
:10013A000005F0910105E457FF4FE491EE7F20D2CC
:10014A00E160E093650039C0E130A0E0FA0771F49C
:10015A00E0916500EE7F19D20AD2E0910205F09192
:10016A00030518D2E260E093650027C0E230A0E000
:10017A00FA0779F4F4D1EE7F08D2E77FE0936500BD
:10018A00E0910405F091050505D2E460E09365006D
:10019A0014C0E330A0E0FA0781F4E1D1EB7FF5D196
:1001AA00EE7FE0936500E0910605F0910705F2D134
:1001BA00E860E093650044245524E991EFBFF99182
:1001CA00E991A9911895EFEFEABBEBBBE7BBE0E039
:1001DA00E8BBEFEFE4BBE5BBE0E0E1BBEFE0E2BB8D
:1001EA00E7E0E2B9E0EFE3B9EFEFE0936100E0E0C6
:1001FA00E0936200EFE1E0936400E0E0E0936500E1
:10020A00E0BFE3E0E3BFE0E0E2BFE1BFEFBDEEBD88
:10021A00EDBDECBDE7BDE6BDEBBDEABDE9BDE8BDA0
:10022A00E0937900E0937800E5BDE4BDE3BDE09397
:10023A008B00E0938A00E0938900E0938800E093C2
:10024A008100E0938000E0938700E0938600E093CA
:10025A008500E0938400E0938300E0938200E1E06C
:10026A00E7BFE0E0E0937D00E0936A00EABFE9BF00
:10027A00EAB9E0939A00E0E8E8B9E0E0E0BDE6B95F
:10028A00EDB9E09374007894EBE0F0E087D1E2E016
:10029A00F5E0ACE0B0E0A083B183E4E0F5E0A1E0F2
:1002AA00B0E0A083B183E6E0F5E0ABE0B0E0A08384
:1002BA00B18379D17CD17BD14BD1A8EEB3E00E9436
:1002CA0034031A9A199A189AC79AC69AC59AC49A56
:1002DA00C39A72D1DF010FD1879B0BC072D1C19B28
:1002EA0002C0C19801C0C19AE0910805E095E09367
:1002FA000805869B1BC065D15FD1E83BABE0FA07D6
:10030A0010F063D113C058D1E436A0E0FA0718F40C
:10031A0053D13A9607C050D1E436A0E0FA0730F03C
:10032A004BD1F296A0E0B0E00E946403D2CFE9E09C
:10033A00F0E0AE16BF0650F444D1C09B02C0C0988C
:10034A0001C0C09AF50131965F01F1CFC09839D149
:10035A004AD160D1DF01CFD0859B19C032D12CD1CF
:10036A007F9710F475D113C027D1E536A0E0FA07BC
:10037A0018F422D13A9707C01FD1E536A0E0FA0750
:10038A0030F01AD1F297A0E0B0E00E94640382999B
:10039A001BC017D1E0910805E03091F01DD1E9E0CA
:1003AA00F0E0AE16BF0650F40CD1C09B02C0C09854
:1003BA0001C0C09AF50131965F01F1CFC09801D111
:1003CA0012D128D1DF0197D0809919C0FAD0F4D080
:1003DA007F9710F43DD113C0EFD0E536A0E0FA07BD
:1003EA0018F4EAD03A9707C0E7D0E536A0E0FA0752
:1003FA0030F0E2D0F297A0E0B0E00E9464030C99DA
:10040A001BC0DFD0D9D0E83BABE0FA0710F0DDD053
:10041A0013C0D2D0E436A0E0FA0718F4CDD03A9649
:10042A0007C0CAD0E436A0E0FA0730F0C5D0F29689
:10043A00A0E0B0E00E9464030E9907C0C2D0A0E019
:10044A00B0E0EEE1F0E00E9464030F990BC0B9D06E
:10045A00C19B02C0C19801C0C19AE0910805E0950C
:10046A00E0930805A0D0A8D0E032A3E0FA0721F46F
:10047A00D89AA89AA99A3BC0EE3EA2E0FA0711F4CC
:10048A00D99A35C0EC3BA2E0FA0719F4DA9AAA9A8B
:10049A002EC0EA38A2E0FA0711F4AB9A28C0E83570
:1004AA00A2E0FA0711F4DB9A22C0E632A2E0FA07C8
:1004BA0019F4AC9ADC9A1BC0E43FA1E0FA0711F4E4
:1004CA00DD9A15C0E23CA1E0FA0719F4DE9AAD9A6A
:1004DA000EC0E039A1E0FA0719F4DF9AAE9A07C014
:1004EA00EE35A1E0FA0711F4AF9A01C05CD0849B03
:1004FA0001C0C09AFFCFBA93AA93E3E0F0E06F017C
:10050A00888099800024C014D0042CF0E3E0F0E045
:10051A00EC15FD050CF41AC0F601A0E0B5E0EE0FEB
:10052A00FF1FEA0FFB1FBF01D401EAE0F0E00E94BF
:10053A005103DB01ED93FC93D401EAE0F0E00E9461
:10054A003E034F01F60131976F01DCCF22960895E1
:10055A00C09AA8ECB0E00E943403C0980895E091D4
:10056A006500ED7FE0936500E09165000895EB7FFB
:10057A00E0936500E0916500E77FE09365000895E8
:10058A00E0936200E09165000895E0936500E091D0
:10059A0065000895E457FF4FE491F2CFE093000518
:1005AA00F09301050895E0E0EBBBE5BB0895D0DFC9
:1005BA00A8ECB0E00C943403A0E0B0E00E9454032D
:1005CA000895A4EFB1E00C943403A0E0B0E0E8EBA6
:1005DA00FBE00E946403BCCFA8EBB2E28CDFC09AB6
:1005EA00AA24BB240895E0916500E061E0936500C8
:1005FA00EBE0F0E0E0930605F0930705E0930405CD
:10060A00F0930505E0930205F0930305C7DFC09A4E
:10061A00C29AD2CFDF010E943403C298C098E091F7
:10062A006500EF7EE0936500ECE0F0E0E0930605FC
:10063A00F0930705E0930405F0930505E09302059E
:10064A00F0930305ABDFA8E9BAE30E943403B4CF01
:10065A00A0E0B0E0EEE1F0E00E94640379CF1096EA
:10066A0039F080ED97E00197F1F7A8951197C9F74E
:10067A0008950024112490E1AA0FBB1F001C111C2D
:10068A000E1A1F0A18F40E0E1F1E01C0A1609A95B9
:10069A0099F7FD01D0010895ECDFFD010895119647
:1006AA0002D0FE2F1197E199FECFFF93FFB7F8947E
:1006BA00AEBBBFBBE09AEDB3FFBFFF91089507D071
:1006CA001196EF93EF2F03D0EF9111970895E19BC5
:1006DA0002C0A895FCCF9FB7F894AEBBBFBBE09A07
:1006EA008DB3E81719F0EDBBE29AE19A9FBF08951E
:00000001FF
