:10002800689413F8C4E3D1E0EBEDF0E068817981DE
:100038008A819B81680F791F7695679560837183A4
:1000480082859385681B790B648B758B329626960F
:10005800D13009F4C23550F3CDEDD0E0ECEDF2E04B
:10006800EF93FF93822F992740FE92E017FC93E0CD
:1000780055FC94E042FC94E0891708F4892F31E09C
:10008800330F882311F08A95FBCF309390023A956D
:10009800662777273F938C899D8955FC02C082810A
:1000A800938180839183680F791F32963A9599F7E7
:1000B8008C899D8980839183680F791F32963F913F
:1000C80077FB779577F9679536953323C9F7FF91CD
:1000D800EF916E8F7F8F8091BA0087FD08C0809165
:1000E8009102882321F08A95809391022AC0822F59
:1000F8008395880F880F80939102CD3D11F56F93FA
:100108007F9366277727C2E9D2E08A819B8188831B
:100118009983680F791F2296C03AB9F79F918F91FA
:1001280089939993680F791F33E077FB77956795E3
:1001380077F93A95D1F76093A2027093A302CDEDB7
:10014800D0E0B096B0962296D03009F4C53E08F4B7
:1001580087CFE89455F80895AA81BB81E89437F8C9
:1001680044FC12C08091AE00882371F0823019F4EB
:10017800689437F808C0B0D08A2E9B2E88E2682E83
:1001880080E0782ED8D2A5C00895C9EFD0E0E4DF8A
:10019800A093B200B093B300EA2FFB2FA091A20264
:1001A800B091A302EA1BFB0BE093B700F093B800F1
:1001B800C7EBD0E051D0C2EBD0E04ED08091B9006F
:1001C80080936E028091BA0080936F0236FC08C05B
:1001D8008091B40080936E028091B50080936F0285
:1001E800A0916E02B0916F02F894A0937002B09340
:1001F80071027894089536FC01C00895CF93DF9377
:10020800EF93FF933F938C899D89971709F486177D
:1002180010F4682F792F3F91FF91EF91DF91CF91E3
:100228000895880F991F880F991F880F991F97FBAA
:100238001EF48095909501963295307F9695879516
:10024800330F10F041F0FACF1EF4681B790BF6CF8C
:10025800680F791FF3CF0895EF92EC80EE2021F418
:100268006091B2026C8321C0888199816A817B8107
:10027800EE24EA948E0D9C1D6E0D7C1DEC801DD025
:10028800C1F050F4E7FC11C08E0D9C1D16D088F407
:10029800E094E394EC8209C0E7FE07C0E094E3949D
:1002A8008E199C090AD028F0EC82888199818A836A
:1002B8009B838A819B81EF900895971709F486178D
:1002C8000895013029F4BB2319F0AB1B80E8A80F6F
:0202D800089587
:0C02DA00AA81BB810895AC81BD8108950C
:1002E60006C123FE0895E89423F840FE08959E89EA
:1002F6006CE3979508F468E272E01BC608958BA13B
:100306009CA136FC02C08E8D9F8D8A8F9B8FE7E65F
:10031600F1E091C0C6E9D0E00895FCDFE1DF00D44A
:10032600EEDFB2D354FE08C04FD94E45474154497B
:100336005645217C7CFB0895A3E6B0E08D919D9106
:100346006D917D91861B970B10F0CF9750F43CD999
:100356005349474E414C204552524F52217CFB0097
:1003660008958EE780939901E89453F8809164008C
:10037600833019F480916300803810F0689453F844
:100386008E8D9F8D97FF0BC0988D992319F09F89AD
:1003960090FD04C09091AC02890F08F0A2DF8E8D0B
:1003A6009F8D8A8F9B8FEFE8F1E053FE08C00CD932
:1003B6004F564552464C4F57217C7CFB08953BD007
:1003C600882733D191D040FC01C00BC036FC04C055
:1003D600FBD86669F80003C0F7D86D6FF600822F68
:1003E600EDD88AE3F0D800C082D1A091B000B091D8
:1003F600B10040FC04C0A0916100B0916200B7FF5B
:1004060006C0BF3F09F4AD3910F440E153E107D906
:1004160040FC0EC085D362D0A0916300B091640009
:1004260006D982D35BD0A0916900B0916A00FFD84B
:1004360040FE0895089540FE089540E059E027D310
:10044600EE2480E48483A091B000B091B100B03076
:1004560009F4A030E1F16FEFE89457F8B7FF0BC04D
:10046600DAD8B03009F4A03508F06CE33396689416
:1004760057F874E007C0B03009F4A83708F06EE307
:10048600359675E090E2908388E09E2D990F990F3E
:10049600990F890FA81BBC0928F0608319D0E716AD
:1004A60088F315C0A80FBC1D893018F08695A6954F
:1004B600FBCFAA2331F0AA95A73009F4A62FA08373
:1004C60007D0E71620F490E2908302D0FACF089581
:1004D60057FE319657FC3197E39408954BE050E16F
:1004E60008D172D820BA03C14CE050E102C114D33E
:1004F600FBDF8A2D833079F4CF93DF93F8D08A2DF2
:10050600880FCDE5D0E0C80FDC1DA991B9918FD831
:10051600DF91CF91089558D8626174BAE8D080907F
:1005260096009090970080E292E0881A990A40F02F
:100536008091BC029927880F991F881A990A20F47E
:1005460043D82D2D2D00089584E6682E7724F4D007
:100556009091BA0284E6891B99274996880F991FBC
:1005660080933101909332010ED1A82DB92DB03070
:1005760009F4A43620F028D82B2B2B000895BBD0E5
:1005860056D885E220D80895CED4B1DFCDD0C2DECC
:1005960040FE1CC080E0888F80916F0083FF0FC0F3
:1005A600002369F0898D882311F4689456F8088F22
:1005B6000BD8414C4C2D47524F554EC40EC004D853
:1005C600414C4C204D4554414CD307C0FDD720200B
:1005D6002053746172742E2E800000C033C013FE47
:1005E6000895C6E9D0E080918A008823C9F78AE099
:1005F60080938A00E89413F88B819981891719F4FE
:100606008A819881891749F0809196008093980095
:1006160080919700809399006ADF7FDE40FC04C0DA
:1006260053FC02C06AD0089562CF68944BE05BE049
:1006360040FE07C0A81629F48EE390E290935E016F
:10064600C2C759C054DF03D06FD281E012C068D24E
:1006560044FE0AC083E0A81639F480E29CE3909336
:100666005E01809372010895DA2C8A2D823010F48F
:1006760082E0D82EDADFDA94EDD336DFE091840219
:10068600F091850242D08AE39ED731D0E09157029D
:10069600F0915802A191CAC7002391F43DD224DFFC
:1006A60093D762616CBAEDEDF0E00BD080936401F4
:1006B6008DE280936501EFEDF0E003D08093660153
:1006C60008958081918162857385861B970B0396B9
:1006D60097FD05C0992329F4873020F002C08827AA
:1006E60001C086E008958A958F3F29F067C741E1EA
:1006F60053E100D000D080E266C70ED065D72D2D1D
:100706002D2D2D2D2D2D2DAD089500D000D0DAD311
:10071600802D59C7A0580895AF93BF9305D205D031
:10072600B6D1BF91AF910895F7D140E059E0089551
:08073600BFEFA7FFBB2773C74B
:10073E00C0922D01C0922E0180E180932C019694DF
:10074E00879450F480912D01860D80932D01809118
:10075E002E01871D80932E0180912E018795809307
:10076E002E0180912D01879580932D01979487946A
:10077E0080912C018A9580932C0119F70895C092CF
:10078E002F018091300190913001891B80933001AF
:10079E0081E180933301881C991C809133018A95E5
:1007AE008093330109F4089580912F01881F80935F
:1007BE002F0180913001881F8093300180912F018D
:1007CE0090913101891B80932F018091300190917E
:1007DE003201890B8093300180F480912F0190912A
:1007EE003101890F80932F01809130019091320158
:0E07FE00891F809330018894CECF0894CCCF11
:10080C006F938F939F9304D09F918F916F910895C5
:10081C00882309F480E2CF93DF93C3E5D1E024FC75
:10082C0007C0649625FC04C0649626FC01C064963F
:10083C003F938F93842FC80FDC1D352F381B08F482
:10084C003327332329F08981888321963A95C9F778
:10085C008F9188833F91DF91CF910895919A01C038
:10086C0091980CC08F939F9384E092E89A95F1F73E
:10087C008A95D9F79F918F91889408956F9304D09E
:10088C006F9120FE10C06295F894689430F81ED1D8
:10089C00E9DF1CD1939A1AD182B3607F8F70862BBB
:1008AC0082BB14D1939812D17894689430F808953F
:1008BC006F9364E1EFD06F910895089583E5809371
:1008CC00DC0381E08093DD0378949198939894985D
:1008DC00959896989798909868ECDCD0909A939A03
:1008EC00E7DFE89420F8E4DF60E3BADFD2D060E31E
:1008FC00B7DFCFD060E2B4DFCCD0689420F868E2E8
:10090C00AFDF68E0ADDF66E0ABDF70E07F93E2D095
:10091C007F9173957830D0F3ABD053D620405044B0
:10092C0020333230304020202020202F2D2D2DAD93
:10093C00A1D047D62020204044454D4F402F2D2D8F
:10094C002D2D2F20202020A097D03BD62020202FEB
:10095C002D2D2D2D2F20202020202050554C53C5DF
:10096C0090D02FD62D2D2F20202020444953435298
:10097C00494D494E41544FD284E1E82E09D0EA94B6
:10098C00E9F76FE06DCF80918800882309F0089516
:10099C0041FCFDCF15FC0BC045FE09C080919300B6
:1009AC0080FFF5CF80918600843009F0F0CF88E08D
:1009BC00809388000EC06496BD1709F4AC1710F034
:1009CC00089405C064978A2F8C1B680F889408952F
:1009DC0008956627772702C06035D0F7A091DC0315
:1009EC00B091DD031496B13009F4A33A10F0A3E5ED
:1009FC00B1E0A093DC03B093DD03C0E5D0E0CA0FF7
:100A0C00DB1F6C5F34E077278D9198818993891770
:100A1C0009F073953A95C1F77723F1F2A091DC03B5
:100A2C00B091DD0334E060E8C3E5D1E0C4DF78F4D5
:100A3C0060ECC7E6D1E0BFDF50F464E9CBE7D1E06E
:100A4C00BADF28F464EDCFE8D1E0B5DF00F408DFBD
:100A5C006D91603409F46FED6E3709F467E0633221
:100A6C0009F46AE2FBDE3A9599F76FE7F9DE08952F
:100A7C0050D008C052D006C054D004C0F9DFFADF01
:100A8C00FBDF53D040E053E134E132DE3A95E9F735
:100A9C00089565E060938700809187008823E1F7D3
:100AAC000895A3E5B1E024FC0AC0A7E6B1E025FC5B
:100ABC0006C0ABE7B1E026FC02C0AFE8B1E0852F81
:100ACC00942F891B382FA90FBC1D089588E28A9595
:100ADC00F1F708957F93770F770F770F80E4780FF6
:100AEC00672FBEDE38E07F91773039F464E06F9386
:100AFC00B5DE6F913A95D9F70895739566277830DE
:100B0C0008F06FE16F93AADE6F9173953A95B9F780
:100B1C0008950FD0689424F808950BD0689425F8A4
:100B2C00089507D0689426F8089503D0689427F8A0
:0E0B3C000895E89424F825F826F827F808957F
:100B4A00F8947F93762F1FD06F2DB3941CD085EA2B
:100B5A00F826F616889411F0F72E08947F91789467
:100B6A000895F89403D085EAF826B394E199FECF64
:100B7A00BEBACFBAFDBAF894E29AE19AE199FECFE9
:100B8A0002D078940895E199FECFBEBACFBAE09A1E
:0C0B9A00E099FECF00000000FDB20895BD
:100BA6008FE58DBF84E08EBFCED482E0B82EEDDF18
:100BB6008EEFF81610F4F80EF1BE789482DE689483
:100BC60042F867E37FE0B5D136D13BD080E58FBDF3
:100BD60081E48EBDE89415F8BC98C49A689445F8EB
:100BE600D5DC8EE7CDE5D1E088838C8B88A723E022
:100BF60084E1809394008091AE028093B002B7D1D5
:100C060080E2809370017894B5D18D9168178091B8
:100C1600AE029091B002891709F0C2CF47FCB4DC4E
:100C2600E89447F863D0FFD01BD0D9DC28D0809158
:100C3600B2029091C8028F5F891710F08093C802A4
:100C4600E2CF00D000D062E3609391009FDE10FCFB
:100C560007D0809191008823C9F7E89410F8089589
:100C660004D094DA56D192DE089514FE0895E894DD
:100C760014F8D7D952FC02C040FC4ED3089551FE59
:100C86000895E89451F8689442F82DD045DF4DDD7B
:100C96009BD47B436C6561722EAEE89417F868941A
:100CA60010F864E6D1DF689434F8CBEDD0E08A859D
:100CB6009B856E8D7F8D860F971F8A879B872296D1
:100CC600D03009F4C53E98F38091AD0081FD68CF20
:100CD6006FE07AE02ED107D0689440F855F855DCDD
:100CE600E89442F808956FE074E123C1809183008F
:100CF600882309F423C01AD180918300C09283000F
:100D060090918C00992309F019C094E090938C007F
:100D1600843020F4833039F42ED010C0689443F820
:100D2600853011F128C0823021F48FEF2ED052C0C9
:100D360005C0813019F481E028D05FC08091AD00F4
:100D460090918D02982791FF089580938D0281FDE1
:100D560001C01BCC689417F844FE95CF36FE03C03D
:100D6600689456F808950895AA2011F0AA9461F49B
:100D760088E0A82E09C0A39412FC03C089E0A81637
:100D860018F0AA24E89412F85DCCAA2019F0689409
:100D960012F80895689455F836FC09C0222371F4B8
:100DA6008F3F61F044FC10C0689436F812C02223CD
:100DB60039F4813029F0E89436F80BC0281B281B3B
:100DC600280F253019F424E0689456F8222309F4F4
:100DD600A4DA0895AA2081F039D0A0915702B091E3
:100DE60058028C9190918702891721F083958C93F4
:100DF60012D0BDD0CADB26CC0895AA20E9F326D0AE
:100E0600A0915702B09158028C9190918602891751
:100E160099F38A95ECCF1AD0FC90A5DE17D002D0B4
:100E2600FC9208958FCE8091AE02813011F0A59884
:100E360001C0A59A089580E0D82E0CD030F06091BC
:100E46008802F0DFFC92D394F8CFAA24DA2CDD20B6
:100E560009F0DA94E0EDFEE08D2D44FC8E5FE80F9C
:100E6600FC1D9091AE02923090E829F0823018F085
:100E7600833008F490EC880F980FB92E880F880FEE
:100E8600E80FFC1DFF3009F4E83110F0089419C092
:100E960019D0A02D17D0B02DA0935702B0935802A9
:100EA60011D0009286020ED000928702E09384024F
:100EB600F093850284E0E80FFC1D04D000928802BE
:100EC60088940895C89531960895C80202557468A5
:100ED6005F4103AE0201022070726602CE020096E6
:100EE600736D70302DB20201056869737401BC021E
:100EF60000646F6673422BBA02016473636C421A14
:100F0600AC02051E6D4E65670AD002003F353048BB
:100F16007A1A56FE0895E89456F864EB78E009D0FC
:100F260068EC7EE106C066E471E003C06AE073E047
:100F360000C0C4BC689452F8F8948DE185BD63BDC9
:100F460078948AE08093920070938B0080918B0056
:100F56008823E1F7C5BCC3BCC3988AE080938B00A5
:100F660080918B008823E1F7E89452F8089502D027
:100F76006C930895A8EAB2E066278D91680F6A27F8
:100F8600AA3DD9F70895E89445F87BDD7DDD5BDE63
:100F96001BD3506172616D73206572726F72A1000E
:080FA600EEDCBBDF4FDEF2CFF1
:02000000D2C567
:0200020028C80C
:0200040027C80B
:02000E0023C805
:02000A00D1C75C
:02000C0023C807
:0200100021C805
:0200120000C824
:0200200019C8FD
:02001C00FCC81E
:0200060026C80A
:0200080025C809
:020014001FC803
:020016001EC802
:020018001DC801
:02001A001CC800
:02001E001AC8FE
:0200220018C8FC
:0200240017C8FB
:0200260016C8FA
:100FAE008F939F938FB78F936F937F93AF93BF93CF
:100FBE00CF93DF93EF93FF9345FE39C080EE8FBD45
:100FCE0086B597B58093590290935A026091CE02DE
:100FDE00772710D001D02BC0860F971F9BBD8ABDDF
:100FEE0068E2772709D0860F971F99BD88BD689450
:100FFE0033F80895660F771F660F771F660F771FFA
:10100E00660F771F08958F939F938FB78F9382B735
:10101E0094E8890F82BF6F937F93AF93BF93CF9363
:10102E00DF93EF93FF93A89531D015FE10D2FF9169
:10103E00EF91DF91CF91BF91AF917F916F918F9192
:10104E008FBF9F918F9118958F939F938FB78F938B
:10105E006F937F93AF93BF93CF93DF93EF93FF93F2
:10106E0033FE13C080EB8FBD8CEB8FBD88E288BF43
:10107E00139519F4689441F803C014E0E89433F81A
:10108E0090EC97B986B1806486B9D1CFCFE6D0E027
:10109E00888DB7D2888F898DB4D2898F45FE1AC0BC
:1010AE008F898A958F8BD1F485E08F8B82B7909143
:1010BE00D0029052890F82BF8CA183958CA380FDA4
:1010CE0001C008C080EE8FBD8CB59DB5CC9686DF75
:1010DE008FEF182F8CA1883009F4CCA2E4D18BA10C
:1010EE0090D28BA38BA1882309F03CC08AE08BA3FE
:1010FE008A8D87D28A8F8C8D84D28C8F8B8D81D264
:10110E008B8F8D8D7ED28D8F8AA17BD28AA389A162
:10111E0078D289A389A18823C1F48AE089A38DA1FD
:10112E00882321F08A9511F4689451F88DA388A133
:10113E00882321F08A9511F4E89454F888A38AAD97
:10114E0060D28AAF8CAD5DD28CAF8EA15AD28EA3F7
:10115E0049F482E38EA368948DAD83958DAF80FFA5
:10116E0032F823F8BC994FC09927B69B9160B79B74
:10117E009260B49B9460B59B9860CFE6D0E09E8B56
:10118E008B89891719F09B8BCD8A3DC08D89813053
:10119E0046FC8431C0F583958D8B813046FC8431BD
:1011AE0090F18A899E8989279A8B46FE98836FEFE4
:1011BE009627892346FE05C083FF03C09881982792
:1011CE00988380FF09C046FE91FF01C01CC061E0FC
:1011DE0092FD18C065E00AC081FF0BC046FC02C03C
:1011EE0090FD11C062E092FD0DC066E0689435F886
:1011FE0009C082FF06C063E035FE04C0E89435F8EE
:10120E0002C001C06C8B08958F939F938FB78F93FD
:10121E006F937F93AF93BF93CF93DF93EF93FF9330
:10122E00CFE6D0E0689416F815FC0FC084B195B1E6
:10123E0067B1613C59F46FA178A5860F971F9695FB
:10124E0087958FA398A7E89441F819C0112321F42C
:10125E008E839F83929813C0A5E7B0E0143009F4F3
:10126E001697A10FBC1DA10FBC1D8D939D9314301D
:10127E0031F406D081EC87B986B1806486B9D7CEB9
:10128E00E1E6F0E0992331F48A3020F4689454F8C2
:10129E008AE088A384899589808391833296F03081
:1012AE0009F4EB36B8F381E08D83E1E6F0E080914E
:1012BE007400880FE80FFC1D609161007091620050
:1012CE0042FC02C044FC00C080819181861B970BBA
:1012DE0010F4882799270BD08D8183958D838D816E
:1012EE00853008F4E2CF929A689414F80895E4E3F6
:1012FE00F1E060917400660FE60FFC1D660FE60FBD
:10130E00FC1D628161937281719381939193089513
:10131E0044FE04C0023011F022FC58C054FE09C035
:10132E0084EF8093700081E080937100689450F890
:10133E0087C053FE09C086E08093700080E08093E2
:10134E007100689450F87CC044FE26C0A091C20083
:10135E00AA2309F43BC00130B1F4B091C800BB23FD
:10136E0091F0AB1738F0AAD79091B402A91BA058F0
:10137E0068F110C08091C6009091B402891B8A95C5
:10138E00A81B20F505C09091B402A91BA05810F41B
:10139E006AE02EC066E42CC0A0917002B09171027A
:1013AE00B7FF07C08091AE00882381F0A095B0955D
:1013BE00119650968091C802A81BBC09A093630297
:1013CE00B093640218F011F0519720F4C5BCE89464
:1013DE0050F836C080916302909164020F9710F41A
:1013EE0088279927992319F4682F683708F068E73A
:1013FE00689450F8EAEFF0E06623E9F06A958E2FD4
:10140E009F2FEE0FFF1FEE0FFF1FEE0FFF1FEE0FB2
:10141E00FF1FEE0FFF1FE81BF90BF695E795F695EC
:10142E00E795F695E795F695E795F695E795F030FD
:10143E0009F4E03009F73796E0937000F0937100ED
:10144E000895F695E7950895EE0FFF1F0895AA9952
:10145E0004C0AA9AAB9AA298A39888279A9B8160F7
:10146E009B9B826080938A0290918C0280938C0267
:10147E00891779F490918B029395943629F4809183
:10148E008A028093AD00AA24953628F490938B029D
:10149E0002C0C0928B020895660F771F660F771FEA
:1014AE00660F771F089552FC089540FE089550FE72
:1014BE00089589819A816B817C8144FC682F44FC5C
:1014CE00792F860F971F660F771F860F971F660F50
:1014DE00771F860F971F682F792F769567957695CC
:1014EE006795769567956B837C8367B3686067BBFA
:1014FE009695879563E09923B9F0639596958795B0
:10150E00992391F0639596958795992369F0639544
:10151E0096958795992341F063959695879596951F
:10152E008795992309F08FEF782F88E1862B95B553
:0E153E00891719F034FE882785BD73BD089506
:10154C00CC2480EC84BB80E085BB8AE187BB85EE34
:10155C0088BB8FEF81BB87EF82BBCBBCCABC83E05F
:10156C0083BF89E289BF84E085BDCBBE80E385BFA4
:10157C008EEC87B98DE886B9AA2411242224332451
:10158C00442455240027689415F8EDB7FEB733971B
:10159C00A0E6B0E0CD92AE17E9F7BF17D9F781E01E
:0E15AC00809395006894B29B46F8BA9A089511
:1015BA008F93829501D08F918F7080638A3308F060
:1015CA00895F1FC9FF91EF91EE0FFF1F09D0319676
:1015DA00C8950020E1F3F695E795EF93FF930895F8
:1015EA00C895702D6DDC802D882379F08F778B3725
:1015FA0030F089578F937DD88F918A95D9F7E1DF9B
:10160A0007FEF0CF089581508C1D0895DF91CF9188
:10161A000895A095B09511960895B7FF06C0F9DF11
:10162A008DE2CFDF02C004C0BB278EEF80932B016F
:10163A00CF93DF93E8E9F6E1E89431F8E03A31F341
:10164A003FDCC02D3DDCD02D80EA8E1B8894879527
:10165A0090912B01891711F4689431F89A9589179A
:10166A0011F48EE2AEDF8827AC1BBD0B10F0839518
:10167A00FBCFAC0FBD1F882331F4F63109F4EF39E3
:10168A0010F431FE03C098DF689431F8D7CFE8032D
:06169A0064000A000100DB
:00000001FF
