:080000000C946C000C9400004C
:100008000C9400000C9400000C9400000C94000068
:100018000C9400000C9400000C9400000C94000058
:100028000C9400000C9400000C9400000C94000048
:100038000C9400000C9400000C9400000C94000038
:100048000C9400000C9400000C9400000C94000028
:100058000C9400000C9400000C9400000C94000018
:100068000C9400000C9400000C9400000C94000008
:100078000C9400000C9400000C9400000C940000F8
:100088000C9400001027E80364000A000100001027
:1000980000011000010025640074656D70657274BC
:1000A80075726520003D526F736520526F626174EE
:1000B8006963205465616D3D0A4E61436C20736528
:1000C8006E736F72000080C002000005CE00000051
:1000D800F894EE27ECBBF1E0F5BFE5BFE0936C00C8
:1000E800F8E1F1BDE1BD8DE0A2E0BB27ED938A9573
:1000F800E9F780E090E1A0E0B1E0ED930197E9F73E
:10010800E0EDF0E085919591009761F0A591B591AA
:1001180005901590BF01F00105900D920197E1F748
:10012800FB01F0CFEFEFEDBFE0E1EEBFC0E0D5E0BF
:100138000C943501E0E0EBBBEABBE8BBE7BBE5BBF1
:10014800EFE1E4BBE0E0E2BBE1BBE3E0E3B9E0E020
:10015800E2B9E0936200E0936100E0936500E09308
:100168006400E0BFE3BFE2BFE1BFEFBDEEBDEDBDA0
:10017800ECBDE7BDE6BDEBBDEABDE9BDE8BDE0937A
:100188007900E0937800E5BDE4BDE3BDE0938B0022
:10019800E0938A00E0938900E0938800E09381006F
:1001A800E0938000E0938700E0938600E093850069
:1001B800E0938400E0938300E0938200E0936A0078
:1001C800EABFE9BFE7BFE0937D00EAB9E0939A0090
:1001D800E0E8E8B9E0E0E0BDE0E2E7B9E3E8E6B985
:1001E800E0E0EDB9E0937400A4E10E94940308955F
:1001F800BA93AA936497FE01FA93EA93EEE9F0E0C2
:10020800FA93EA93E88DF98D0E941C040E94290450
:1002180084E00E94D7022896EF89EA93AF890E946A
:100228004403DE010E94720368960895AA931A9304
:1002380019E1A981A13041F4A4EFB1E00E940A04B8
:1002480013950E94C2030AC0A981A23039F4A4EF11
:10025800B1E00E940A041A950E94C20318810C9406
:100268004F0368DFDB9A5524E2E0E515C8F0AFE0FC
:100278000E943803ADEAB0E00E948103AC9AA99AC3
:10028800A89AA4EFB1E00E940A04AC98A998A8988B
:100298000E945103A8EEB3E00E940A045394E4CFED
:1002A800089902C0A1E005C0099902C0A2E001C0F6
:1002B800A6E1BCDFF5CFFFCFBA93AA931A930A93AE
:1002C800AA81BB8112960E942104309759F1AA8114
:1002D800BB8114960E9421048F01309761F002308F
:1002E800E0E01E07F0F0F80131978F01AA81BB8189
:1002F8001496ED93FC93AA81BB811296ED91FD9122
:100308003196FE93EE933197AC81A083AA81BB818D
:100318000E942104FF232AF0ED91FD913196FE936E
:10032800EE9306C0AA81BB81EFEFFFEFED93FC933C
:100338001981088125960895BA93AA9326970E9451
:100348002E0410E0AC85BD85E0E0F0E0ED93FC9371
:10035800EA89FB893196EA8BFB8B3197E4912E2F42
:10036800E03011F40C94CF02E12FE03039F425325B
:1003780011F411E002C00E94D0030CC1E130A9F4CD
:10038800253219F40E94D00304C112E040E000E0D5
:100398002D3211F401E0FEC02B3211F44BE2FAC009
:1003A800203211F440E2F6C002C0E23039F450E0E5
:1003B80013E0203311F40068EDC004C0E33011F0FD
:1003C8000C94CE02203310F02A3308F007C0AAE0BC
:1003D8005A9F502DE22FE0535E0FDCC0E22FE33628
:1003E80049F40E94D703E889F989A481AA930E9455
:1003F800DD03CFC0E33741F40E94D7030E94E30333
:100408000E940B031E2F0AC0E03761F40E94D70335
:100418000E94E3030E9417031E2F086002600F77F3
:1004280030E035C0E43611F0E93611F4046002C05A
:10043800E53731F4ECE8F0E0EE83FF8315E00DC01A
:10044800E83511F4086004C0E83711F00C94CD02C7
:10045800E6E9F0E0EE83FF8314E002FF14C00E9497
:10046800D7030E94ED03AB85AA233AF4EA85FB85FE
:100478000E941804EA87FB874DE2403011F01F5FA5
:1004880001C00B7F04C00E94D7030E94ED0300FD4A
:1004980011C0151778F407FF08C002FF04C00B7FCE
:1004A800242F115001C020E301C020E20E94D00394
:1004B8005150EFCF312F01FF17C03030A1F003FFAB
:1004C80006C0EE81FF812591EE83FF8305C0AE81D2
:1004D800BF812D91AE83BF830E94D003503009F0B5
:1004E80051503150EACF4BC020E3EE81FF810E948A
:1004F8002504E887F987EE81FF813296EE83FF8332
:10050800E885F985AA85BB85AE17BF0750F02F5F30
:10051800A885B985EA85FB85EA1BFB0BEA87FB877B
:10052800EFCF2A3328F003FF02C0295F01C0295DFD
:1005380004FD1AC0213320F4A885B985119709F460
:1005480009C0531710F000FF01C013C020E207FFD5
:100558000BC020E3006102FF07C00B7F4A930E9493
:10056800DD03503009F051500E94D003503009F09B
:1005780051503150A885B985129708F0B5CF00FFC2
:1005880008C0503031F05150E0E2EA930E94DD0398
:10059800F8CF10E0DDCEAC85BD850E9421040E9415
:1005A800350464960895FF92F82E26970E94300429
:1005B8000E94F503309719F4EFEFFFEF23C0DE0137
:1005C80016960E9414048D010E94F503EE83FF83A2
:1005D800E0E0E887E987DE011A960E9414040E9489
:1005E8002104FA93EA931A930A93E0E6F1E0FA9366
:1005F800EA93DE011A96A0DE9F01AE81BF81E0E09A
:10060800EC93F9010E9437042A96FF900895BA9353
:10061800AA93A991B991EE27FF276D91662311F04E
:100628003196FBCF0895BA93AA93AA27BB27E991DD
:10063800F9910590002011F01196FBCFFD01089566
:10064800AA93EBB3EF70AE2FE881E07FEA2BEBBB08
:1006580085E08A95F1F7DA9A8DE08A95F1F7DA98CC
:100668008DE08A95F1F788C0AA93A881E9DFE8812F
:10067800E295E883A881E4DF85E88A95F1F77CC0F4
:10068800AA93E881F0E0E050FB4FE081A981AE0F2A
:10069800EBDF4980788022960895A2E00E94FC034F
:1006A800ACE0E2DFA1E00E94FC03E0E07E2E4E2EEB
:1006B8000895AA93A881AA3011F0461448F0E0E002
:1006C800EA937394A72DDCDFA881AA3009F454C0FB
:1006D8004394D89AA881C8DFD8984EC0BA93AA93F1
:1006E8001A93A981BA81ED91A983BA831E2FE030AC
:1006F80019F0A12FDEDFF5CF10C0BA93AA931A9391
:10070800E981FA813196E983FA833197E4911E2FC2
:10071800E03019F0A12FCDDFF3CF1881239608958B
:10072800AA93EAB3E06FEABBD29AD09AD19ADA9840
:10073800D898D9986880E881E058E0930205E88164
:10074800E054E0930305A4E1B0E00E940A040E948B
:1007580002040E9402040E940204A0E271DF88ECF5
:1007680090E00197F1F7A8E27FDFA4E07DDFA5E83C
:100778007BDFA6E079DF91DF219608950E9451037F
:10078800A1EAB0E00E948103EAE0EA93E0E0EA939C
:10079800A12FBB270C94FC002A93AD85BE85EF855D
:1007A800F88909950895E889F9893497E88BF98BD0
:1007B8000895AD85BE85EF85F88909950895A889BE
:1007C800B98914960E942104EE83FF83AE81BF810C
:1007D8000895A889B98914960E942104EA87FB879D
:1007E8000895DE011C960E9414040E9421040895B5
:1007F8000E943803A3E0B0E00C940A04A0E30E942E
:10080800240388EC90E00197F1F70895109639F0E9
:1008180080ED97E00197F1F7A8951197C9F708952A
:100828000024AF0DB01D0895F195E195F0400895AD
:100838006F2F660F660B762F0895ED91FC91119737
:1008480008950590F491E02D08957A936A93FA93A8
:10085800EA9308955A934A933A932A931A930A93D8
:1008680008955D814C813B812A8119810881089511
:00000001FF
