:0A00000020C0FECFFDCFFCCFFBCFE8
:10000A00FACFF9CFF8CFF7CFF6CFF5CFF4CFF3CFBA
:10001A00F2CFF1CFF0CFEFCFEECFEDCF79000100E5
:10002A002D4E414E00494E460000010005002600B3
:10003A000100600128000000F894EE27ECBBF1E013
:10004A00FBBFEBBFE5BFF8E1F1BDE1BD8DE0A2E08A
:10005A00BB27ED938A95E9F780E094E0A0E6ED935B
:10006A000197E9F7E4E3F0E085919591009761F053
:10007A00A591B59105901590BF01F00105900D92DB
:10008A000197E1F7FB01F0CFEFE5EDBFE4E0EEBF4A
:10009A00C0E6D1E02AC0E0E0E8BBE3E0E7BBE1E08C
:1000AA00E5BBE0E0E4BBE2BBEFEFE1BBE0E0E3BFCE
:1000BA00E2BFEFBDEEBDEDBDECBDE7BDE6BDEBBDFC
:1000CA00EABDE9BDE8BDE2BDE5BDE4BDE3BDE5BF0E
:1000DA00E9BFEAB9E0E8E8B9E0E0E0BFE7B9E3E898
:1000EA00E6B9E0E0EDB9E6BF0895D5DFFECFFFCF70
:00000001FF
