:0A0000000C9446000C9463000C946D
:10000A0064000C9465000C9466000C9467000C94D0
:10001A0068000C9469000C946A000C9400000C941B
:10002A0000000C9400000C9400000C9400000C9446
:10003A006D000C946C000C946B000C9400000C94F2
:10004A0000000C9400000C9400000C9400000C9426
:10005A0000000C9400000C9400000C9400000C9416
:10006A0000000C9400000C9400000C9400000C9406
:10007A0000000C9400000C9400000C9400000C94F6
:10008A000000F894EE27ECBBF1E0F5BFE5BFE09382
:10009A006C008DE0A2E0BB27ED938A95E9F780E03A
:1000AA0090E1A0E0B1E0ED930197E9F7EFEFEDBF42
:1000BA00E0E1EEBFC0E0D5E00C946E00189518950B
:1000CA0018951895189518951895189518951895BE
:1000DA001895EFEFEABBE0E0EBBBEFEFE7BBE0E040
:1000EA00E8BBEFEFE4BBE0E0E5BBE1BBEFEFE2BB6F
:1000FA00EFE0E2B9E0EFE3B9EFEFE0936100E0E0AF
:10010A00E0936200EFE1E0936400E0E1E0936500D0
:10011A00E0E0E0BFE5E0E3BFE0E0E2BFE1BFEFBD62
:10012A00E1E0EEBDE0E0EDBDECBDE7BDE6BDEBBD57
:10013A00EABDE9BDE8BDE0937900E0937800E5BD4A
:10014A00E4BDE3BDE0938B00E0938A00E09389006D
:10015A00E0938800E0938100E0938000E0938700B9
:10016A00E0938600E0938500E0938400E0938300A7
:10017A00E0938200E7E0E7BFE0E0E0937D00E093F0
:10018A006A00EABFEFEFE9BFE8BFE0E0EAB9E0934F
:10019A009A00E0E8E8B9E0E0E0BDE6B9EDB9E0933D
:1001AA0074007894C09AA8EEB3E00E94E300C09865
:1001BA00A8EEB3E00E94E300F5CFFFCF109639F026
:1001CA0080ED97E00197F1F7A8951197C9F708957F
:00000001FF
