:060000000C9451000C9469
:10000600B3000C94BD000C94C0000C94CA000C9470
:10001600CD000C94D7000C94DA000C94E4000C94F8
:1000260000000C9400000C9400000C9400000C944A
:1000360000000C9400000C9400000C9480000C94BA
:1000460000000C9400000C9400000C9400000C942A
:1000560000000C9400000C9400000C9400000C941A
:1000660000000C9400000C9400000C9400000C940A
:1000760000000C9400000C9400000C9400000C94FA
:1000860000000C940000039F250D9949411F0109AA
:10009600000000000400040096000000F894EE271B
:1000A600ECBBF1E0F5BFE5BFE0936C008DE0A2E0AC
:1000B600BB27ED938A95E9F780E090E1A0E0B1E0F7
:1000C600ED930197E9F7EAE9F0E0859195910097BC
:1000D60061F0A591B59105901590BF01F0010590CD
:1000E6000D920197E1F7FB01F0CFEFEFEDBFE0E1F5
:1000F600EEBFC0E0D5E00C94F000AA93BA93EA9361
:10010600FA93EFB7EA93F894F30131963F01A3E02F
:10011600B0E00E9479019E2EF0E0309719F4D2D01B
:10012600E16014C0E130A0E0FA0719F4CBD0E26038
:100136000DC0E230A0E0FA0719F4C4D0E46006C0AE
:10014600E330A0E0FA0721F4BDD0E860E093650053
:100156007894E991EFBFF991E991B991A991189530
:10016600EA93FA93F894ECE8F0E0E491E093620005
:10017600789430C0F89478941895EA93FA93F894A2
:10018600EEE8F0E0E491E0936200789423C0F894FE
:1001960078941895EA93FA93F894E0E9F0E0E491FC
:1001A600E0936200789416C0F89478941895EA93D0
:1001B600FA93F894E2E9F0E0E491E093620078942F
:1001C60009C0EA93FA93F894E3E9F0E0E491E09346
:1001D60062007894F991E9911895EFEFEABBE0E0B7
:1001E600EBBBEFEFE7BBE0E0E8BBEFEFE4BBE0E043
:1001F600E5BBE1BBEFE0E2BBE7E0E2B9E0EFE3B984
:10020600EFEFE0936100E0E0E0936200EFE1E0935E
:100216006400E0E0E0936500E0BFE4E0E3BFE0E017
:10022600E2BFE1BFEFBDEEBDEDBDECBDE7BDE6BD96
:10023600EBBDEABDE9BDE8BDE0937900E093780047
:10024600E5BDE4BDE3BDE0938B00E0938A00E09357
:100256008900E0938800E0938100E0938000E093BA
:100266008700E0938600E0938500E0938400E093A6
:100276008300E0938200E1E0E7BFE0E0E0937D00E9
:10028600EAEAE0936A00EABFEFEFE9BFE8BFE0E021
:10029600EAB9E0939A00E0E8E8B9E0E0E0BDE6B943
:1002A600EDB9E09374007894C09AC29AA8EEB3E0D0
:1002B6000E946B01C098C298A8EEB3E00E946B0141
:1002C600FFCFFFCFE0E0E0936500E0916500089581
:1002D600109639F080ED97E00197F1F7A895119700
:1002E600C9F70895F195E195F0400895E894F7FF70
:1002F60002C0F8DF6894EA23FB230EF4F3DF0895C7
:00000001FF
