:0A00000012C0FECFFDCFFCCFFBCFF6
:10000A00FACFF9CFF8CFF7CFF6CFF5CFF4CFF3CFBA
:10001A00F2CFF1CFF0CFEFCFEECFEDCFF894EE27BE
:10002A00ECBBF1E0FBBFEBBFE5BF8DE0A2E0BB2775
:10003A00ED938A95E9F780E094E0A0E6ED930197C5
:10004A00E9F7EFE5EDBFE4E0EEBFC0E6D1E00EC0B0
:10005A00AA93E881E062E7B98BE18A95F1F7369ACB
:10006A00349BFECF349AE5B121960895EFEFE7BBB2
:10007A00E0E0E8BBE4BBE5BBE1BBE2BBE3BFE2BF58
:10008A00EFBDEEBDEDBDECBDE7BDE6BDEBBDEABD26
:10009A00E9BDE8BDE2BDE5BDE4BDE3BDE9BFE5BF3D
:1000AA00EAB9E0E8E8B9E0E2E7B9E3E8E6B9E0E0AE
:1000BA00E0BFEDB9E6BF2197E0E0E883A881A3306D
:1000CA0070F4E881F0E0E05AFE4FFF93EF93C0DF4F
:1000DA00AF91BF91EC93E881EF5FE883EFCFA091F6
:1000EA006001A03D08F4C09AA0916001A23D08F009
:1000FA00C098A0916101AB3C08F4C19AA09161013A
:10010A00AD3C08F0C198A0916201AE3608F4C29ADB
:10011A00A0916201AE3608F0C2982196CCCFFFCFEB
:00000001FF
