:0600000026C0FECFFDCF7B
:10000600FCCFFBCFFACFF9CFF8CFF7CFF6CFF5CFAE
:1000160047C0F3CF60C0F1CFF0CFEFCFEECFEDCF3B
:100026001027E80364000A00010000100001100018
:10003600010000000000000000000100020038007E
:10004600060004003A000000F894EE27ECBBF1E04D
:10005600FBBFEBBFE5BF8DE0A2E0BB27ED938A9522
:10006600E9F780E094E0A0E6ED930197E9F7E0E494
:10007600F0E085919591009761F0A591B591059075
:100086001590BF01F00105900D920197E1F7FB0174
:10009600F0CFEFE5EDBFE4E0EEBFC0E6D1E02FC064
:1000A6005FD063D01BB10CB1E12FEC7189F4E52D63
:1000B6005394F0E0E05AFE4F0083E8E0E51509F4BA
:1000C60055247394E8E0E71519F47724689420F82A
:1000D600099119910FC044D0882061F08A94E92DC6
:1000E6009394F0E0E859FE4FE081ECB9E8E0E915B9
:1000F60009F49924E991EFBFF991E9911895E7E0A0
:10010600E7BBE0E0E8BBE4BBE5BBE1BBE2BBE3BFCA
:10011600E2BFEFBDEEBDEDBDECBDE7BDE6BDEBBD9F
:10012600EABDE9BDE8BDE2BDE5BDE4BDE3BDE9BFAD
:10013600E5BFEBB9E8EDEAB9E6E8E0BDE0E0E0BD31
:10014600E3E3E9B9E0E8E8B9E0E2E7B9E3E8E6B90C
:10015600E0E0E0BFEDB9E6BF7894C09AFECFFFCFEE
:10016600EA93FA93EFB7EA9308951A930A930895D8
:00000001FF
