:040000000C94590003
:100004000C9400000C9400000C9400000C9400006C
:100014000C9400000C9400000C9400000C9400005C
:100024000C9400000C9400000C9400000C9400004C
:100034000C9400000C9400000C9400000C948800B4
:100044000C9400000C9400000C9400000C9400002C
:100054000C9400000C9400000C9400000C9400001C
:100064000C9400000C9400000C9400000C9400000C
:100074000C9400000C9400000C9400000C940000FC
:100084000C9400000C940000039F250D9949411F16
:100094000109FF000000000000000100020003004D
:1000A400040004009800070000059C000000F89478
:1000B400EE27ECBBF1E0F5BFE5BFE0936C008DE00B
:1000C400A2E0BB27ED938A95E9F780E090E1A0E0F8
:1000D400B1E0ED930197E9F7E4EAF0E085919591B9
:1000E400009761F0A591B59105901590BF01F001BD
:1000F40005900D920197E1F7FB01F0CFEFEFEDBF13
:10010400E0E1EEBFC0E0D5E00C94E400AA93BA931A
:10011400EA93FA93EFB7EA93F20131962F01A3E041
:10012400B0E00E9478013F01309751F4B8D0BFD0BD
:10013400E160E0936500E0910005F091010535C0B0
:10014400E130A0E0FA0761F4BDD0E0916500AFD0E2
:10015400E260E0936500E0910205F091030525C09B
:10016400E230A0E0FA0779F4ADD099D0E77FE093CC
:100174006500E0916500E460E0936500E0910405AA
:10018400F091050512C0E330A0E0FA0799F49AD083
:1001940086D0EB7FE0936500E0916500E860E09332
:1001A4006500E0910605F0910705E457FF4FE491DF
:1001B400E09362007894E991EFBFF991E991B991E4
:1001C400A9911895EFEFEABBEBBBE7BBE0E0E8BB16
:1001D400EFEFE4BBE5BBE0E0E1BBEFE0E2BBE7E06F
:1001E400E2B9E0EFE3B9EFEFE0936100E0E0E09320
:1001F4006200EFE1E0936400E0E0E0936500E0BFBB
:10020400E4E0E3BFE0E0E2BFE1BFEFBDEEBDEDBD82
:10021400ECBDE7BDE6BDEBBDEABDE9BDE8BDE093DD
:100224007900E0937800E5BDE4BDE3BDE0938B0085
:10023400E0938A00E0938900E0938800E0938100D2
:10024400E0938000E0938700E0938600E0938500CC
:10025400E0938400E0938300E0938200E1E0E7BF51
:10026400E0E0E0937D00E0936A00EABFE9BFEAB909
:10027400E0939A00E0E8E8B9E0E0E0BDE6B9EDB962
:10028400E09374007894A4EFB1E00E946A0192981C
:10029400A4EFB1E00E946A01929AF5CFFFCFE091FA
:1002A4006500ED7FE0936500E09165000895EB7FC4
:1002B400E0936500E0916500E77FE0936500E091DD
:1002C40065000895E0916500EE7FE0936500089570
:1002D400109639F080ED97E00197F1F7A895119702
:1002E400C9F70895F195E195F0400895E894F7FF72
:1002F40002C0F8DF6894EA23FB230EF4F3DF0895C9
:00000001FF
